:100000000C945D000C9485000C9485000C94850084
:100010000C9485000C9485000C9485000C9485004C
:100020000C9485000C9485000C9485000C9485003C
:100030000C9485000C9485000C9485000C9485002C
:100040000C9452020C9485000C94C2020C949C02F5
:100050000C9485000C9485000C9485000C9485000C
:100060000C9485000C94850000000008000201003B
:100070000003040700000000000000000000000072
:10008000250028002B0000000000240027002A0083
:10009000040404040404040402020202020203032E
:1000A0000303030301020408102040800102040836
:1000B0001020010204081020DC0311241FBECFEF22
:1000C000D8E0DEBFCDBF11E0A0E0B1E0E0E7F8E0AE
:1000D00002C005900D92A631B107D9F721E0A6E143
:1000E000B1E001C01D92AC3BB207E1F710E0CDE5F5
:1000F000D0E004C02197FE010E942B04CC35D1072B
:10010000C9F70E94F4020C9436040C94000090E0AD
:10011000FC01EC55FF4F2491FC01E057FF4F849107
:10012000882399F090E0880F991FFC01EA57FF4F50
:10013000A591B491FC01E458FF4F859194918FB73C
:10014000F894EC91E22BEC938FBF0895CF92DF925D
:10015000EF92FF920F931F93CF93DF936C017A017D
:100160008B01C0E0D0E0CE15DF0589F0D8016D919C
:100170008D01D601ED91FC910190F081E02DC60139
:100180000995892B11F47E0102C02196ECCFC7019D
:10019000DF91CF911F910F91FF90EF90DF90CF9063
:1001A0000895089580E090E00895FC01538D448DFA
:1001B000252F30E0842F90E0821B930B541710F012
:1001C000CF96089501970895FC01918D828D98171F
:1001D00061F0828DDF01A80FB11D5D968C91928D2B
:1001E0009F5F9F73928F90E008958FEF9FEF089528
:1001F000FC01918D828D981731F0828DE80FF11DF1
:10020000858D90E008958FEF9FEF0895FC01918D0B
:10021000228D892F90E0805C9F4F821B91098F7304
:10022000992708958FE191E00E94060121E0892B32
:1002300009F420E0822F0895FC01848DDF01A80FCE
:10024000B11DA35ABF4F2C91848D90E001968F73FE
:100250009927848FA689B7892C93A089B1898C911D
:1002600080648C93938D848D981306C00288F389E3
:10027000E02D80818F7D80830895EF92FF920F9310
:100280001F93CF93DF93EC0181E0888F9B8D8C8D42
:10029000981305C0E889F989808185FD24C0F62E70
:1002A0000B8D10E00F5F1F4F0F731127E02E8C8D09
:1002B000E8120CC00FB607FCFACFE889F9898081F3
:1002C00085FFF5CFCE010E941C01F1CF8B8DFE0181
:1002D000E80FF11DE35AFF4FF0820B8FEA89FB898B
:1002E0008081806207C0EE89FF896083E889F9898F
:1002F00080818064808381E090E0DF91CF911F91C5
:100300000F91FF90EF900895CF93DF93EC01888DCC
:100310008823C9F0EA89FB89808185FD05C0A88909
:10032000B9898C9186FD0FC00FB607FCF5CF80818F
:1003300085FFF2CFA889B9898C9185FFEDCFCE01D9
:100340000E941C01E7CFDF91CF9108958F929F9279
:10035000AF92BF920F931F93CF93DF93CDB7DEB7CA
:10036000A1970FB6F894DEBF0FBECDBF19A24230E1
:1003700008F44AE08E010F5D1F4F842E912CA12CB2
:10038000B12CA50194010E940904E62FB901CA010C
:1003900001501109EA3014F4E05D01C0E95CD801B4
:1003A000EC93232B242B252B61F70115110571F0FC
:1003B000F80101900020E9F73197AF01401B510B84
:1003C000B8018FE191E00E94A60002C080E090E0B9
:1003D000A1960FB6F894DEBF0FBECDBFDF91CF91CF
:1003E0001F910F91BF90AF909F908F900895CF92E3
:1003F000DF92EF92FF92CF93DF936C01990FEE089B
:10040000FF08F7FE1AC0E0911F01F0912001019052
:10041000F081E02D6DE28FE191E00995EC01662716
:100420007727CB016C197D098E099F094AE00E944C
:10043000A6017C01EC0EFD1E06C04AE0C701B60114
:100440000E94A6017C0142E050E062E171E08FE190
:1004500091E00E94A6008E0D9F1DDF91CF91FF902D
:10046000EF90DF90CF9008958FE191E00E94060118
:100470001816190674F48FE191E00E94E4008F3F92
:10048000910509F008F487BD87B590E001960C94BA
:10049000F70108950E94120181110C94340208950D
:1004A0000E9431041F920F920FB60F9211242F93C6
:1004B0003F938F939F93AF93BF9380911B01909134
:1004C0001C01A0911D01B0911E0130911A0123E081
:1004D000230F2D3720F40196A11DB11D05C026E87C
:1004E000230F0296A11DB11D20931A0180931B01B9
:1004F00090931C01A0931D01B0931E0180911601E1
:1005000090911701A0911801B09119010196A11DB8
:10051000B11D8093160190931701A0931801B09319
:100520001901BF91AF919F918F913F912F910F90A2
:100530000FBE0F901F9018951F920F920FB60F923B
:1005400011242F933F934F935F936F937F938F93D8
:100550009F93AF93BF93EF93FF938FE191E00E943E
:100560001C01FF91EF91BF91AF919F918F917F916E
:100570006F915F914F913F912F910F900FBE0F9010
:100580001F9018951F920F920FB60F9211242F9360
:100590008F939F93EF93FF93E0912F01F0913001A0
:1005A0008081E0913501F091360182FD12C0908189
:1005B000809138018F5F8F7320913901821751F03C
:1005C000E0913801F0E0E15EFE4F958F80933801B5
:1005D00001C08081FF91EF919F918F912F910F909A
:1005E0000FBE0F901F901895789484B5826084BDDB
:1005F00084B5816084BD85B5826085BD85B5816027
:1006000085BD80916E00816080936E0010928100A4
:10061000809181008260809381008091810081605F
:100620008093810080918000816080938000809120
:10063000B10084608093B1008091B00081608093AC
:10064000B00080917A00846080937A0080917A0073
:10065000826080937A0080917A00816080937A0032
:1006600080917A00806880937A001092C1008FB7E1
:100670008F778FBFE0912F01F091300182E080836E
:10068000E0912B01F0912C011082E0912D01F0916D
:100690002E018FEC808310923701E0913301F091AD
:1006A000340186E08083E0913101F0913201808154
:1006B00080618083E0913101F09132018081886016
:1006C0008083E0913101F0913201808180688083E4
:1006D000E0913101F091320180818F7D80838DE046
:1006E0000E94870086E00E94870085E00E948700C4
:1006F00083EA84BD85E085BD10926E0015BA16BCF4
:100700008EE187BD80E888BD8FB780688FBF80E0AD
:1007100090E00E94F701C5E7D0E001EB10E05DE951
:10072000E52E50E0F52E3BB1FE019491F8012491A5
:10073000F7018491882309F43CC0992339F193305F
:1007400091F038F49130A9F0923001F594B59F7D85
:1007500012C0973091F09830A1F09430B9F4909194
:1007600080009F7D03C0909180009F7790938000D0
:100770000DC094B59F7794BD09C09091B0009F774C
:1007800003C09091B0009F7D9093B00090E0880FDF
:10079000991F84589F4FFC01A591B4918FB7F8948D
:1007A0009C9136FD03C02095292301C0292B2C9351
:1007B0008FBF0E944A02B7CFEFE1F1E013821282AD
:1007C00088EE93E0A0E0B0E084839583A683B783AE
:1007D00084E091E09183808385EC90E09587848725
:1007E00084EC90E09787868780EC90E0918B808BFB
:1007F00081EC90E0938B828B82EC90E0958B848BE4
:1008000086EC90E0978B868B118E128E138E148E51
:100810000895A1E21A2EAA1BBB1BFD010DC0AA1F41
:10082000BB1FEE1FFF1FA217B307E407F50720F059
:10083000A21BB30BE40BF50B661F771F881F991FD4
:100840001A9469F760957095809590959B01AC011D
:10085000BD01CF010895EE0FFF1F0590F491E02D2B
:10086000099481E090E0F8940C943604F894FFCF5A
:10087000000000003D01A600D50084010601E4004F
:06088000F8000D0A000063
:00000001FF
